:060000000A128A11FC2F18
:100F4A00831203138601831603138601831603177C
:100F5A008801890183120313861406118611061269
:100F6A000630F2001330F100AD30F000F00BBB2F69
:100F7A00F10BBB2FF20BBB2FC22F83120313861068
:100F8A000615861106120630F2001330F100AD3054
:100F9A00F000F00BCE2FF10BCE2FF20BCE2FD52F68
:100FAA008312031386100611861506120630F20004
:100FBA001330F100AD30F000F00BE12FF10BE12F0F
:100FCA00F20BE12FE82F8312031386100611861104
:100FDA0006160630F2001330F100AD30F000F00BC7
:100FEA00F42FF10BF42FF20BF42FFB2FAF2F830109
:060FFA000A128A11A52F66
:04400E00F4E3FFFFD9
:00000001FF
